{
	"data": {
		"bytecode": {
			"linkReferences": {},
			"object": "608060405234801561001057600080fd5b506000808190555061029a806100276000396000f3fe608060405234801561001057600080fd5b506004361061004c5760003560e01c80632baeceb7146100515780638ada066e1461005b578063c6888fa114610079578063d09de08a14610095575b600080fd5b61005961009f565b005b6100636100ba565b6040516100709190610112565b60405180910390f35b610093600480360381019061008e919061015e565b6100c3565b005b61009d6100de565b005b60016000808282546100b191906101ba565b92505081905550565b60008054905090565b806000808282546100d491906101ee565b9250508190555050565b60016000808282546100f09190610230565b92505081905550565b6000819050919050565b61010c816100f9565b82525050565b60006020820190506101276000830184610103565b92915050565b600080fd5b61013b816100f9565b811461014657600080fd5b50565b60008135905061015881610132565b92915050565b6000602082840312156101745761017361012d565b5b600061018284828501610149565b91505092915050565b7f4e487b7100000000000000000000000000000000000000000000000000000000600052601160045260246000fd5b60006101c5826100f9565b91506101d0836100f9565b92508282039050818111156101e8576101e761018b565b5b92915050565b60006101f9826100f9565b9150610204836100f9565b9250828202610212816100f9565b915082820484148315176102295761022861018b565b5b5092915050565b600061023b826100f9565b9150610246836100f9565b925082820190508082111561025e5761025d61018b565b5b9291505056fea264697066735822122074bbf98274f3f1b9a325cb3565a6946412b4cb73763d753f57d07b256289b65964736f6c63430008120033",
			"opcodes": "PUSH1 0x80 PUSH1 0x40 MSTORE CALLVALUE DUP1 ISZERO PUSH2 0x10 JUMPI PUSH1 0x0 DUP1 REVERT JUMPDEST POP PUSH1 0x0 DUP1 DUP2 SWAP1 SSTORE POP PUSH2 0x29A DUP1 PUSH2 0x27 PUSH1 0x0 CODECOPY PUSH1 0x0 RETURN INVALID PUSH1 0x80 PUSH1 0x40 MSTORE CALLVALUE DUP1 ISZERO PUSH2 0x10 JUMPI PUSH1 0x0 DUP1 REVERT JUMPDEST POP PUSH1 0x4 CALLDATASIZE LT PUSH2 0x4C JUMPI PUSH1 0x0 CALLDATALOAD PUSH1 0xE0 SHR DUP1 PUSH4 0x2BAECEB7 EQ PUSH2 0x51 JUMPI DUP1 PUSH4 0x8ADA066E EQ PUSH2 0x5B JUMPI DUP1 PUSH4 0xC6888FA1 EQ PUSH2 0x79 JUMPI DUP1 PUSH4 0xD09DE08A EQ PUSH2 0x95 JUMPI JUMPDEST PUSH1 0x0 DUP1 REVERT JUMPDEST PUSH2 0x59 PUSH2 0x9F JUMP JUMPDEST STOP JUMPDEST PUSH2 0x63 PUSH2 0xBA JUMP JUMPDEST PUSH1 0x40 MLOAD PUSH2 0x70 SWAP2 SWAP1 PUSH2 0x112 JUMP JUMPDEST PUSH1 0x40 MLOAD DUP1 SWAP2 SUB SWAP1 RETURN JUMPDEST PUSH2 0x93 PUSH1 0x4 DUP1 CALLDATASIZE SUB DUP2 ADD SWAP1 PUSH2 0x8E SWAP2 SWAP1 PUSH2 0x15E JUMP JUMPDEST PUSH2 0xC3 JUMP JUMPDEST STOP JUMPDEST PUSH2 0x9D PUSH2 0xDE JUMP JUMPDEST STOP JUMPDEST PUSH1 0x1 PUSH1 0x0 DUP1 DUP3 DUP3 SLOAD PUSH2 0xB1 SWAP2 SWAP1 PUSH2 0x1BA JUMP JUMPDEST SWAP3 POP POP DUP2 SWAP1 SSTORE POP JUMP JUMPDEST PUSH1 0x0 DUP1 SLOAD SWAP1 POP SWAP1 JUMP JUMPDEST DUP1 PUSH1 0x0 DUP1 DUP3 DUP3 SLOAD PUSH2 0xD4 SWAP2 SWAP1 PUSH2 0x1EE JUMP JUMPDEST SWAP3 POP POP DUP2 SWAP1 SSTORE POP POP JUMP JUMPDEST PUSH1 0x1 PUSH1 0x0 DUP1 DUP3 DUP3 SLOAD PUSH2 0xF0 SWAP2 SWAP1 PUSH2 0x230 JUMP JUMPDEST SWAP3 POP POP DUP2 SWAP1 SSTORE POP JUMP JUMPDEST PUSH1 0x0 DUP2 SWAP1 POP SWAP2 SWAP1 POP JUMP JUMPDEST PUSH2 0x10C DUP2 PUSH2 0xF9 JUMP JUMPDEST DUP3 MSTORE POP POP JUMP JUMPDEST PUSH1 0x0 PUSH1 0x20 DUP3 ADD SWAP1 POP PUSH2 0x127 PUSH1 0x0 DUP4 ADD DUP5 PUSH2 0x103 JUMP JUMPDEST SWAP3 SWAP2 POP POP JUMP JUMPDEST PUSH1 0x0 DUP1 REVERT JUMPDEST PUSH2 0x13B DUP2 PUSH2 0xF9 JUMP JUMPDEST DUP2 EQ PUSH2 0x146 JUMPI PUSH1 0x0 DUP1 REVERT JUMPDEST POP JUMP JUMPDEST PUSH1 0x0 DUP2 CALLDATALOAD SWAP1 POP PUSH2 0x158 DUP2 PUSH2 0x132 JUMP JUMPDEST SWAP3 SWAP2 POP POP JUMP JUMPDEST PUSH1 0x0 PUSH1 0x20 DUP3 DUP5 SUB SLT ISZERO PUSH2 0x174 JUMPI PUSH2 0x173 PUSH2 0x12D JUMP JUMPDEST JUMPDEST PUSH1 0x0 PUSH2 0x182 DUP5 DUP3 DUP6 ADD PUSH2 0x149 JUMP JUMPDEST SWAP2 POP POP SWAP3 SWAP2 POP POP JUMP JUMPDEST PUSH32 0x4E487B7100000000000000000000000000000000000000000000000000000000 PUSH1 0x0 MSTORE PUSH1 0x11 PUSH1 0x4 MSTORE PUSH1 0x24 PUSH1 0x0 REVERT JUMPDEST PUSH1 0x0 PUSH2 0x1C5 DUP3 PUSH2 0xF9 JUMP JUMPDEST SWAP2 POP PUSH2 0x1D0 DUP4 PUSH2 0xF9 JUMP JUMPDEST SWAP3 POP DUP3 DUP3 SUB SWAP1 POP DUP2 DUP2 GT ISZERO PUSH2 0x1E8 JUMPI PUSH2 0x1E7 PUSH2 0x18B JUMP JUMPDEST JUMPDEST SWAP3 SWAP2 POP POP JUMP JUMPDEST PUSH1 0x0 PUSH2 0x1F9 DUP3 PUSH2 0xF9 JUMP JUMPDEST SWAP2 POP PUSH2 0x204 DUP4 PUSH2 0xF9 JUMP JUMPDEST SWAP3 POP DUP3 DUP3 MUL PUSH2 0x212 DUP2 PUSH2 0xF9 JUMP JUMPDEST SWAP2 POP DUP3 DUP3 DIV DUP5 EQ DUP4 ISZERO OR PUSH2 0x229 JUMPI PUSH2 0x228 PUSH2 0x18B JUMP JUMPDEST JUMPDEST POP SWAP3 SWAP2 POP POP JUMP JUMPDEST PUSH1 0x0 PUSH2 0x23B DUP3 PUSH2 0xF9 JUMP JUMPDEST SWAP2 POP PUSH2 0x246 DUP4 PUSH2 0xF9 JUMP JUMPDEST SWAP3 POP DUP3 DUP3 ADD SWAP1 POP DUP1 DUP3 GT ISZERO PUSH2 0x25E JUMPI PUSH2 0x25D PUSH2 0x18B JUMP JUMPDEST JUMPDEST SWAP3 SWAP2 POP POP JUMP INVALID LOG2 PUSH5 0x6970667358 0x22 SLT KECCAK256 PUSH21 0xBBF98274F3F1B9A325CB3565A6946412B4CB73763D PUSH22 0x3F57D07B256289B65964736F6C634300081200330000 "
		},
		"gasEstimates": {
			"creation": {
				"codeDepositCost": "133200",
				"executionCost": "5191",
				"totalCost": "138391"
			},
			"external": {
				"decrement()": "infinite",
				"getCounter()": "2437",
				"increment()": "infinite",
				"multiply(uint256)": "infinite"
			}
		},
		"methodIdentifiers": {
			"decrement()": "2baeceb7",
			"getCounter()": "8ada066e",
			"increment()": "d09de08a",
			"multiply(uint256)": "c6888fa1"
		}
	},
	"abi": [
		{
			"inputs": [],
			"stateMutability": "nonpayable",
			"type": "constructor"
		},
		{
			"inputs": [],
			"name": "decrement",
			"outputs": [],
			"stateMutability": "nonpayable",
			"type": "function"
		},
		{
			"inputs": [],
			"name": "getCounter",
			"outputs": [
				{
					"internalType": "uint256",
					"name": "",
					"type": "uint256"
				}
			],
			"stateMutability": "view",
			"type": "function"
		},
		{
			"inputs": [],
			"name": "increment",
			"outputs": [],
			"stateMutability": "nonpayable",
			"type": "function"
		},
		{
			"inputs": [
				{
					"internalType": "uint256",
					"name": "factor",
					"type": "uint256"
				}
			],
			"name": "multiply",
			"outputs": [],
			"stateMutability": "nonpayable",
			"type": "function"
		}
	]
}