{
  "_format": "hh-sol-artifact-1",
  "contractName": "Counter",
  "sourceName": "contracts/Counter.sol",
  "abi": [
    {
      "inputs": [],
      "stateMutability": "nonpayable",
      "type": "constructor"
    },
    {
      "inputs": [],
      "name": "decrement",
      "outputs": [],
      "stateMutability": "nonpayable",
      "type": "function"
    },
    {
      "inputs": [],
      "name": "getCounter",
      "outputs": [
        {
          "internalType": "uint256",
          "name": "",
          "type": "uint256"
        }
      ],
      "stateMutability": "view",
      "type": "function"
    },
    {
      "inputs": [],
      "name": "increment",
      "outputs": [],
      "stateMutability": "nonpayable",
      "type": "function"
    },
    {
      "inputs": [
        {
          "internalType": "uint256",
          "name": "factor",
          "type": "uint256"
        }
      ],
      "name": "multiply",
      "outputs": [],
      "stateMutability": "nonpayable",
      "type": "function"
    }
  ],
  "bytecode": "0x608060405234801561001057600080fd5b50600080819055506102cb806100276000396000f3fe608060405234801561001057600080fd5b506004361061004c5760003560e01c80632baeceb7146100515780638ada066e1461005b578063c6888fa114610079578063d09de08a14610095575b600080fd5b61005961009f565b005b6100636100ba565b6040516100709190610146565b60405180910390f35b610093600480360381019061008e919061010e565b6100c3565b005b61009d6100de565b005b60016000808282546100b19190610211565b92505081905550565b60008054905090565b806000808282546100d491906101b7565b9250508190555050565b60016000808282546100f09190610161565b92505081905550565b6000813590506101088161027e565b92915050565b60006020828403121561012057600080fd5b600061012e848285016100f9565b91505092915050565b61014081610245565b82525050565b600060208201905061015b6000830184610137565b92915050565b600061016c82610245565b915061017783610245565b9250827fffffffffffffffffffffffffffffffffffffffffffffffffffffffffffffffff038211156101ac576101ab61024f565b5b828201905092915050565b60006101c282610245565b91506101cd83610245565b9250817fffffffffffffffffffffffffffffffffffffffffffffffffffffffffffffffff04831182151516156102065761020561024f565b5b828202905092915050565b600061021c82610245565b915061022783610245565b92508282101561023a5761023961024f565b5b828203905092915050565b6000819050919050565b7f4e487b7100000000000000000000000000000000000000000000000000000000600052601160045260246000fd5b61028781610245565b811461029257600080fd5b5056fea26469706673582212203de61a61458ecbfc0d9a31ec21b9b32f5caeb62cbd1cf5b6956cefdc72fe314964736f6c63430008040033",
  "linkReferences": {},
  "deployedLinkReferences": {}
}