{
  "_format": "hh-sol-artifact-1",
  "contractName": "Counter",
  "sourceName": "contracts/Counter.sol",
  "abi": [
    {
      "inputs": [],
      "stateMutability": "nonpayable",
      "type": "constructor"
    },
    {
      "inputs": [],
      "name": "counter",
      "outputs": [
        {
          "internalType": "uint256",
          "name": "",
          "type": "uint256"
        }
      ],
      "stateMutability": "view",
      "type": "function"
    },
    {
      "inputs": [],
      "name": "decrement",
      "outputs": [],
      "stateMutability": "nonpayable",
      "type": "function"
    },
    {
      "inputs": [],
      "name": "getCounter",
      "outputs": [
        {
          "internalType": "uint256",
          "name": "",
          "type": "uint256"
        }
      ],
      "stateMutability": "view",
      "type": "function"
    },
    {
      "inputs": [],
      "name": "increment",
      "outputs": [],
      "stateMutability": "nonpayable",
      "type": "function"
    },
    {
      "inputs": [
        {
          "internalType": "uint256",
          "name": "factor",
          "type": "uint256"
        }
      ],
      "name": "multiply",
      "outputs": [],
      "stateMutability": "nonpayable",
      "type": "function"
    }
  ],
  "bytecode": "0x608060405234801561001057600080fd5b50600080819055506102fa806100276000396000f3fe608060405234801561001057600080fd5b50600436106100575760003560e01c80632baeceb71461005c57806361bc221a146100665780638ada066e14610084578063c6888fa1146100a2578063d09de08a146100be575b600080fd5b6100646100c8565b005b61006e6100e3565b60405161007b9190610175565b60405180910390f35b61008c6100e9565b6040516100999190610175565b60405180910390f35b6100bc60048036038101906100b7919061013d565b6100f2565b005b6100c661010d565b005b60016000808282546100da9190610240565b92505081905550565b60005481565b60008054905090565b8060008082825461010391906101e6565b9250508190555050565b600160008082825461011f9190610190565b92505081905550565b600081359050610137816102ad565b92915050565b60006020828403121561014f57600080fd5b600061015d84828501610128565b91505092915050565b61016f81610274565b82525050565b600060208201905061018a6000830184610166565b92915050565b600061019b82610274565b91506101a683610274565b9250827fffffffffffffffffffffffffffffffffffffffffffffffffffffffffffffffff038211156101db576101da61027e565b5b828201905092915050565b60006101f182610274565b91506101fc83610274565b9250817fffffffffffffffffffffffffffffffffffffffffffffffffffffffffffffffff04831182151516156102355761023461027e565b5b828202905092915050565b600061024b82610274565b915061025683610274565b9250828210156102695761026861027e565b5b828203905092915050565b6000819050919050565b7f4e487b7100000000000000000000000000000000000000000000000000000000600052601160045260246000fd5b6102b681610274565b81146102c157600080fd5b5056fea264697066735822122095896c99ca0a6e7d5972455aa3df7c11606bb5c4e3d371b5b38d2b2307eaecd464736f6c63430008040033",
  "linkReferences": {},
  "deployedLinkReferences": {}
}